:1000000012C019C018C017C016C015C014C013C044
:1000100012C011C010C00FC00EC00DC00CC00BC06C
:100020000AC009C008C011241FBECFE5D2E0DEBF60
:10003000CDBF02D026C0E4CF84E886B986E087B978
:10004000D29ADA98D69ADE9880E090E001968033D2
:1000500025E7920710F4DE9A08C080362AEE920750
:1000600010F4DE9802C080E090E0369A349BFECF18
:1000700024B135B12436310510F0DA9AE7CFDA9899
:06008000E5CFF894FFCF6C
:00000001FF
