S00E00005465737430322E7372656314
S113000019C020C01FC01EC01DC01CC01BC01AC008
S113001019C018C017C016C015C014C013C012C030
S113002011C010C00FC00EC00DC00CC00BC00AC060
S113003009C008C011241FBECFEFD4E0DEBFCDBF7E
S113004015D01EC0DDCFEAE7F0E0808180648083B4
S1130050808184FFFDCF809178009091790083ECBA
S113006099E00197F1F700C00000089584E88093B7
S11300707A0010927C0084E08AB91BB8E4DFFECFDA
S1070080F894FFCF1E
S9030000FC
