:1000000021C028C027C026C025C024C023C022C0CC
:1000100021C020C01FC01EC01DC01CC01BC01AC0F4
:1000200019C018C017C016C015C014C013C012C024
:1000300011C010C04AC05FC075C08BC0A2C0B8C09C
:10004000CFC0E6C011241FBECFEFD4E0DEBFCDBFCE
:1000500015D11DC1D5CF21E028B9E3ECF9E03197E6
:10006000F1F700C0000018B8E3ECF9E03197F1F7C0
:1000700000C0000028B9E3ECF9E03197F1F700C0C7
:10008000000018B8E3ECF9E03197F1F700C0000088
:10009000009719F0019749F010C018B883EC99E067
:1000A0000197F1F700C0000008C081E088B9E3ECD7
:1000B000F9E03197F1F700C000006830710508F0F1
:1000C000BEC0FB01E65EFF4F099418B883EC99E0CF
:1000D0000197F1F700C0000018B8E3ECF9E03197A0
:1000E000F1F700C0000018B883EC99E00197F1F730
:1000F00000C00000A4C018B8E3ECF9E03197F1F7B4
:1001000000C0000018B883EC99E00197F1F700C037
:10011000000081E088B9E3ECF9E03197F1F700C025
:1001200000008DC018B883EC99E00197F1F700C08A
:10013000000081E088B9E3ECF9E03197F1F700C005
:10014000000018B883EC99E00197F1F700C00000B7
:1001500076C018B8E3ECF9E03197F1F700C0000081
:1001600081E088B983EC99E00197F1F700C00000C5
:1001700081E088B9E3ECF9E03197F1F700C00000C5
:100180005EC081E088B983EC99E00197F1F700C087
:10019000000018B8E3ECF9E03197F1F700C0000077
:1001A00018B883EC99E00197F1F700C0000047C050
:1001B00081E088B9E3ECF9E03197F1F700C0000085
:1001C00018B883EC99E00197F1F700C0000081E0D6
:1001D00088B9E3ECF9E03197F1F700C000002FC0D7
:1001E00081E088B983EC99E00197F1F700C0000045
:1001F00081E088B9E3ECF9E03197F1F700C0000045
:1002000018B883EC99E00197F1F700C0000017C01F
:1002100081E088B9E3ECF9E03197F1F700C0000024
:1002200088B983EC99E00197F1F700C0000081E004
:1002300088B9E3ECF9E03197F1F700C0000081E004
:1002400088B983EC99E00197F1F700C0000018B875
:10025000E3ECF9E03197F1F700C0000081E088B9E4
:1002600083EC99E00197F1F700C0000018B8E3ECC7
:10027000F9E03197F1F700C00000089581E087B9F7
:1002800018B860E070E081E090E0E5DEFACFF89425
:02029000FFCF9E
:00000001FF
